{
  "address": "0x4414717caC4EBA95d47Ca77929654746130073cB",
  "abi": [
    {
      "inputs": [
        {
          "internalType": "address",
          "name": "baseOracle_",
          "type": "address"
        },
        {
          "internalType": "address",
          "name": "baseDenominatorToken_",
          "type": "address"
        }
      ],
      "stateMutability": "nonpayable",
      "type": "constructor"
    },
    {
      "anonymous": false,
      "inputs": [
        {
          "indexed": true,
          "internalType": "bytes32",
          "name": "role",
          "type": "bytes32"
        },
        {
          "indexed": true,
          "internalType": "bytes32",
          "name": "previousAdminRole",
          "type": "bytes32"
        },
        {
          "indexed": true,
          "internalType": "bytes32",
          "name": "newAdminRole",
          "type": "bytes32"
        }
      ],
      "name": "RoleAdminChanged",
      "type": "event"
    },
    {
      "anonymous": false,
      "inputs": [
        {
          "indexed": true,
          "internalType": "bytes32",
          "name": "role",
          "type": "bytes32"
        },
        {
          "indexed": true,
          "internalType": "address",
          "name": "account",
          "type": "address"
        },
        {
          "indexed": true,
          "internalType": "address",
          "name": "sender",
          "type": "address"
        }
      ],
      "name": "RoleGranted",
      "type": "event"
    },
    {
      "anonymous": false,
      "inputs": [
        {
          "indexed": true,
          "internalType": "bytes32",
          "name": "role",
          "type": "bytes32"
        },
        {
          "indexed": true,
          "internalType": "address",
          "name": "account",
          "type": "address"
        },
        {
          "indexed": true,
          "internalType": "address",
          "name": "sender",
          "type": "address"
        }
      ],
      "name": "RoleRevoked",
      "type": "event"
    },
    {
      "inputs": [],
      "name": "DEFAULT_ADMIN_ROLE",
      "outputs": [
        {
          "internalType": "bytes32",
          "name": "",
          "type": "bytes32"
        }
      ],
      "stateMutability": "view",
      "type": "function"
    },
    {
      "inputs": [],
      "name": "addressProvider",
      "outputs": [
        {
          "internalType": "contract AddressProvider",
          "name": "",
          "type": "address"
        }
      ],
      "stateMutability": "view",
      "type": "function"
    },
    {
      "inputs": [],
      "name": "baseDenominatorToken",
      "outputs": [
        {
          "internalType": "address",
          "name": "",
          "type": "address"
        }
      ],
      "stateMutability": "view",
      "type": "function"
    },
    {
      "inputs": [],
      "name": "baseOracle",
      "outputs": [
        {
          "internalType": "address",
          "name": "",
          "type": "address"
        }
      ],
      "stateMutability": "view",
      "type": "function"
    },
    {
      "inputs": [
        {
          "internalType": "bytes32",
          "name": "role",
          "type": "bytes32"
        }
      ],
      "name": "getRoleAdmin",
      "outputs": [
        {
          "internalType": "bytes32",
          "name": "",
          "type": "bytes32"
        }
      ],
      "stateMutability": "view",
      "type": "function"
    },
    {
      "inputs": [
        {
          "internalType": "bytes32",
          "name": "role",
          "type": "bytes32"
        },
        {
          "internalType": "address",
          "name": "account",
          "type": "address"
        }
      ],
      "name": "grantRole",
      "outputs": [],
      "stateMutability": "nonpayable",
      "type": "function"
    },
    {
      "inputs": [
        {
          "internalType": "bytes32",
          "name": "role",
          "type": "bytes32"
        },
        {
          "internalType": "address",
          "name": "account",
          "type": "address"
        }
      ],
      "name": "hasRole",
      "outputs": [
        {
          "internalType": "bool",
          "name": "",
          "type": "bool"
        }
      ],
      "stateMutability": "view",
      "type": "function"
    },
    {
      "inputs": [],
      "name": "oracleLookBackPeriod",
      "outputs": [
        {
          "internalType": "uint24",
          "name": "",
          "type": "uint24"
        }
      ],
      "stateMutability": "view",
      "type": "function"
    },
    {
      "inputs": [
        {
          "internalType": "uint256",
          "name": "amountIn",
          "type": "uint256"
        }
      ],
      "name": "quote",
      "outputs": [
        {
          "internalType": "uint256",
          "name": "amountOut",
          "type": "uint256"
        }
      ],
      "stateMutability": "view",
      "type": "function"
    },
    {
      "inputs": [
        {
          "internalType": "bytes32",
          "name": "role",
          "type": "bytes32"
        },
        {
          "internalType": "address",
          "name": "account",
          "type": "address"
        }
      ],
      "name": "renounceRole",
      "outputs": [],
      "stateMutability": "nonpayable",
      "type": "function"
    },
    {
      "inputs": [
        {
          "internalType": "bytes32",
          "name": "role",
          "type": "bytes32"
        },
        {
          "internalType": "address",
          "name": "account",
          "type": "address"
        }
      ],
      "name": "revokeRole",
      "outputs": [],
      "stateMutability": "nonpayable",
      "type": "function"
    },
    {
      "inputs": [
        {
          "internalType": "contract AddressProvider",
          "name": "_addressProvider",
          "type": "address"
        }
      ],
      "name": "setAddressProvider",
      "outputs": [],
      "stateMutability": "nonpayable",
      "type": "function"
    },
    {
      "inputs": [
        {
          "internalType": "uint24",
          "name": "secondsAgo",
          "type": "uint24"
        }
      ],
      "name": "setOracleLookBackPeriod",
      "outputs": [],
      "stateMutability": "nonpayable",
      "type": "function"
    },
    {
      "inputs": [
        {
          "internalType": "address",
          "name": "router",
          "type": "address"
        },
        {
          "internalType": "address[]",
          "name": "path",
          "type": "address[]"
        }
      ],
      "name": "setSwapRoute",
      "outputs": [],
      "stateMutability": "nonpayable",
      "type": "function"
    },
    {
      "inputs": [
        {
          "internalType": "bytes4",
          "name": "interfaceId",
          "type": "bytes4"
        }
      ],
      "name": "supportsInterface",
      "outputs": [
        {
          "internalType": "bool",
          "name": "",
          "type": "bool"
        }
      ],
      "stateMutability": "view",
      "type": "function"
    }
  ],
  "transactionHash": "0x421d28f09c5e1e95336b324dafc717318581ec4de4343401f6eff4c432d8ad75",
  "args": [
    "0xdd56c3eaa2691b30d0a3d5bb3783d0ffc7579421",
    "0x8f3Cf7ad23Cd3CaDbD9735AFf958023239c6A063"
  ],
  "numDeployments": 2,
  "solcInputHash": "3e7f00241883d24e9fca7e517dbd73c0",
  "bytecode": "0x60c06040523480156200001157600080fd5b50604051620019473803806200194783398101604081905262000034916200012f565b6001600160a01b03828116608052811660a0526001805462ffffff60a01b1916600f60a21b1790556200006960003362000071565b505062000167565b6000828152602081815260408083206001600160a01b038516845290915290205460ff166200010e576000828152602081815260408083206001600160a01b03851684529091529020805460ff19166001179055620000cd3390565b6001600160a01b0316816001600160a01b0316837f2f8788117e7eff1d82e926ec794901d17c78024a50270940304540a733656f0d60405160405180910390a45b5050565b80516001600160a01b03811681146200012a57600080fd5b919050565b600080604083850312156200014357600080fd5b6200014e8362000112565b91506200015e6020840162000112565b90509250929050565b60805160a051611790620001b760003960008181610127015281816103ed0152818161094801528181610a870152610b3f015260008181610299015281816109960152610ab601526117906000f3fe608060405234801561001057600080fd5b50600436106100f55760003560e01c80632f2ff15d11610097578063abbcfcfb11610066578063abbcfcfb14610294578063d547741f146102bb578063dc917c48146102ce578063ed1bd76c146102e157600080fd5b80632f2ff15d1461022257806336568abe1461023557806391d1485414610248578063a217fddf1461028c57600080fd5b80631a5fa2e3116100d35780631a5fa2e3146101a9578063248a9ca3146101be57806325796cf8146101ef5780632954018c1461020257600080fd5b806301ffc9a7146100fa5780630cbb2536146101225780631a004bcc1461016e575b600080fd5b61010d6101083660046111e8565b6102f4565b60405190151581526020015b60405180910390f35b6101497f000000000000000000000000000000000000000000000000000000000000000081565b60405173ffffffffffffffffffffffffffffffffffffffff9091168152602001610119565b6001546101959074010000000000000000000000000000000000000000900462ffffff1681565b60405162ffffff9091168152602001610119565b6101bc6101b736600461124c565b61038d565b005b6101e16101cc366004611269565b60009081526020819052604090206001015490565b604051908152602001610119565b6101bc6101fd366004611324565b6103e0565b6001546101499073ffffffffffffffffffffffffffffffffffffffff1681565b6101bc6102303660046113d8565b6106bb565b6101bc6102433660046113d8565b6106e5565b61010d6102563660046113d8565b60009182526020828152604080842073ffffffffffffffffffffffffffffffffffffffff93909316845291905290205460ff1690565b6101e1600081565b6101497f000000000000000000000000000000000000000000000000000000000000000081565b6101bc6102c93660046113d8565b610798565b6101bc6102dc366004611408565b6107bd565b6101e16102ef366004611269565b610817565b60007fffffffff0000000000000000000000000000000000000000000000000000000082167f7965db0b00000000000000000000000000000000000000000000000000000000148061038757507f01ffc9a7000000000000000000000000000000000000000000000000000000007fffffffff000000000000000000000000000000000000000000000000000000008316145b92915050565b600061039881610c7b565b50600180547fffffffffffffffffffffffff00000000000000000000000000000000000000001673ffffffffffffffffffffffffffffffffffffffff92909216919091179055565b60006103eb81610c7b565b7f000000000000000000000000000000000000000000000000000000000000000073ffffffffffffffffffffffffffffffffffffffff16826000815181106104355761043561142d565b602002602001015173ffffffffffffffffffffffffffffffffffffffff16146104bf576040517f08c379a000000000000000000000000000000000000000000000000000000000815260206004820152600c60248201527f696e76616c69642070617468000000000000000000000000000000000000000060448201526064015b60405180910390fd5b600280547fffffffffffffffffffffffff00000000000000000000000000000000000000001673ffffffffffffffffffffffffffffffffffffffff85161790558151610512906004906020850190611149565b508160018351610522919061148b565b815181106105325761053261142d565b6020908102919091010151600380547fffffffffffffffffffffffff00000000000000000000000000000000000000001673ffffffffffffffffffffffffffffffffffffffff9283161790556001546040517f21f8a7210000000000000000000000000000000000000000000000000000000081527fadbe96ac53cb4ca392e9ee5a7e23c7d7c8450cb015ceaad4d4677fae1c0bb1a4600482015260009291909116906321f8a7219060240160206040518083038186803b1580156105f657600080fd5b505afa15801561060a573d6000803e3d6000fd5b505050506040513d601f19601f8201168201806040525081019061062e91906114a2565b60035490915073ffffffffffffffffffffffffffffffffffffffff8083169116146106b5576040517f08c379a000000000000000000000000000000000000000000000000000000000815260206004820152600c60248201527f696e76616c69642070617468000000000000000000000000000000000000000060448201526064016104b6565b50505050565b6000828152602081905260409020600101546106d681610c7b565b6106e08383610c88565b505050565b73ffffffffffffffffffffffffffffffffffffffff8116331461078a576040517f08c379a000000000000000000000000000000000000000000000000000000000815260206004820152602f60248201527f416363657373436f6e74726f6c3a2063616e206f6e6c792072656e6f756e636560448201527f20726f6c657320666f722073656c66000000000000000000000000000000000060648201526084016104b6565b6107948282610d78565b5050565b6000828152602081905260409020600101546107b381610c7b565b6106e08383610d78565b60006107c881610c7b565b506001805462ffffff90921674010000000000000000000000000000000000000000027fffffffffffffffffff000000ffffffffffffffffffffffffffffffffffffffff909216919091179055565b60008161082657506000919050565b6001546040517f21f8a7210000000000000000000000000000000000000000000000000000000081527fe17af420adc2ecb8bbc8370891481cb5eba8e79cd9efc541de57bf34f6bf4e9f600482015260009173ffffffffffffffffffffffffffffffffffffffff16906321f8a7219060240160206040518083038186803b1580156108b057600080fd5b505afa1580156108c4573d6000803e3d6000fd5b505050506040513d601f19601f820116820180604052508101906108e891906114a2565b6001546040517f5906c09900000000000000000000000000000000000000000000000000000000815273ffffffffffffffffffffffffffffffffffffffff80841660048301526fffffffffffffffffffffffffffffffff871660248301527f0000000000000000000000000000000000000000000000000000000000000000811660448301527401000000000000000000000000000000000000000090920462ffffff1660648201529192507f00000000000000000000000000000000000000000000000000000000000000001690635906c0999060840160206040518083038186803b1580156109d857600080fd5b505afa925050508015610a26575060408051601f3d9081017fffffffffffffffffffffffffffffffffffffffffffffffffffffffffffffffe0168201909252610a23918101906114bf565b60015b610b37576040517f5906c09900000000000000000000000000000000000000000000000000000000815273ffffffffffffffffffffffffffffffffffffffff82811660048301526fffffffffffffffffffffffffffffffff851660248301527f000000000000000000000000000000000000000000000000000000000000000081166044830152600160648301527f00000000000000000000000000000000000000000000000000000000000000001690635906c0999060840160206040518083038186803b158015610af857600080fd5b505afa158015610b0c573d6000803e3d6000fd5b505050506040513d601f19601f82011682018060405250810190610b3091906114bf565b9150610b3a565b91505b6003547f000000000000000000000000000000000000000000000000000000000000000073ffffffffffffffffffffffffffffffffffffffff908116911614610c75576002546040517fd06ca61f00000000000000000000000000000000000000000000000000000000815260009173ffffffffffffffffffffffffffffffffffffffff169063d06ca61f90610bd690869060049081016114d8565b60006040518083038186803b158015610bee57600080fd5b505afa158015610c02573d6000803e3d6000fd5b505050506040513d6000823e601f3d9081017fffffffffffffffffffffffffffffffffffffffffffffffffffffffffffffffe0168201604052610c489190810190611541565b90508060018251610c59919061148b565b81518110610c6957610c6961142d565b60200260200101519250505b50919050565b610c858133610e2f565b50565b60008281526020818152604080832073ffffffffffffffffffffffffffffffffffffffff8516845290915290205460ff166107945760008281526020818152604080832073ffffffffffffffffffffffffffffffffffffffff85168452909152902080547fffffffffffffffffffffffffffffffffffffffffffffffffffffffffffffff00166001179055610d1a3390565b73ffffffffffffffffffffffffffffffffffffffff168173ffffffffffffffffffffffffffffffffffffffff16837f2f8788117e7eff1d82e926ec794901d17c78024a50270940304540a733656f0d60405160405180910390a45050565b60008281526020818152604080832073ffffffffffffffffffffffffffffffffffffffff8516845290915290205460ff16156107945760008281526020818152604080832073ffffffffffffffffffffffffffffffffffffffff8516808552925280832080547fffffffffffffffffffffffffffffffffffffffffffffffffffffffffffffff0016905551339285917ff6391f5c32d9c69d2a47ea670b442974b53935d1edc7fd64eb21e047a839171b9190a45050565b60008281526020818152604080832073ffffffffffffffffffffffffffffffffffffffff8516845290915290205460ff1661079457610e858173ffffffffffffffffffffffffffffffffffffffff166014610eff565b610e90836020610eff565b604051602001610ea19291906115fe565b604080517fffffffffffffffffffffffffffffffffffffffffffffffffffffffffffffffe0818403018152908290527f08c379a00000000000000000000000000000000000000000000000000000000082526104b69160040161167f565b60606000610f0e8360026116d0565b610f1990600261170d565b67ffffffffffffffff811115610f3157610f31611282565b6040519080825280601f01601f191660200182016040528015610f5b576020820181803683370190505b5090507f300000000000000000000000000000000000000000000000000000000000000081600081518110610f9257610f9261142d565b60200101907effffffffffffffffffffffffffffffffffffffffffffffffffffffffffffff1916908160001a9053507f780000000000000000000000000000000000000000000000000000000000000081600181518110610ff557610ff561142d565b60200101907effffffffffffffffffffffffffffffffffffffffffffffffffffffffffffff1916908160001a90535060006110318460026116d0565b61103c90600161170d565b90505b60018111156110d9577f303132333435363738396162636465660000000000000000000000000000000085600f166010811061107d5761107d61142d565b1a60f81b8282815181106110935761109361142d565b60200101907effffffffffffffffffffffffffffffffffffffffffffffffffffffffffffff1916908160001a90535060049490941c936110d281611725565b905061103f565b508315611142576040517f08c379a000000000000000000000000000000000000000000000000000000000815260206004820181905260248201527f537472696e67733a20686578206c656e67746820696e73756666696369656e7460448201526064016104b6565b9392505050565b8280548282559060005260206000209081019282156111c3579160200282015b828111156111c357825182547fffffffffffffffffffffffff00000000000000000000000000000000000000001673ffffffffffffffffffffffffffffffffffffffff909116178255602090920191600190910190611169565b506111cf9291506111d3565b5090565b5b808211156111cf57600081556001016111d4565b6000602082840312156111fa57600080fd5b81357fffffffff000000000000000000000000000000000000000000000000000000008116811461114257600080fd5b73ffffffffffffffffffffffffffffffffffffffff81168114610c8557600080fd5b60006020828403121561125e57600080fd5b81356111428161122a565b60006020828403121561127b57600080fd5b5035919050565b7f4e487b7100000000000000000000000000000000000000000000000000000000600052604160045260246000fd5b604051601f82017fffffffffffffffffffffffffffffffffffffffffffffffffffffffffffffffe016810167ffffffffffffffff811182821017156112f8576112f8611282565b604052919050565b600067ffffffffffffffff82111561131a5761131a611282565b5060051b60200190565b6000806040838503121561133757600080fd5b82356113428161122a565b915060208381013567ffffffffffffffff81111561135f57600080fd5b8401601f8101861361137057600080fd5b803561138361137e82611300565b6112b1565b81815260059190911b820183019083810190888311156113a257600080fd5b928401925b828410156113c95783356113ba8161122a565b825292840192908401906113a7565b80955050505050509250929050565b600080604083850312156113eb57600080fd5b8235915060208301356113fd8161122a565b809150509250929050565b60006020828403121561141a57600080fd5b813562ffffff8116811461114257600080fd5b7f4e487b7100000000000000000000000000000000000000000000000000000000600052603260045260246000fd5b7f4e487b7100000000000000000000000000000000000000000000000000000000600052601160045260246000fd5b60008282101561149d5761149d61145c565b500390565b6000602082840312156114b457600080fd5b81516111428161122a565b6000602082840312156114d157600080fd5b5051919050565b60006040820184835260206040818501528185548084526060860191508660005282600020935060005b8181101561153457845473ffffffffffffffffffffffffffffffffffffffff1683526001948501949284019201611502565b5090979650505050505050565b6000602080838503121561155457600080fd5b825167ffffffffffffffff81111561156b57600080fd5b8301601f8101851361157c57600080fd5b805161158a61137e82611300565b81815260059190911b820183019083810190878311156115a957600080fd5b928401925b828410156115c7578351825292840192908401906115ae565b979650505050505050565b60005b838110156115ed5781810151838201526020016115d5565b838111156106b55750506000910152565b7f416363657373436f6e74726f6c3a206163636f756e74200000000000000000008152600083516116368160178501602088016115d2565b7f206973206d697373696e6720726f6c652000000000000000000000000000000060179184019182015283516116738160288401602088016115d2565b01602801949350505050565b602081526000825180602084015261169e8160408501602087016115d2565b601f017fffffffffffffffffffffffffffffffffffffffffffffffffffffffffffffffe0169190910160400192915050565b6000817fffffffffffffffffffffffffffffffffffffffffffffffffffffffffffffffff04831182151516156117085761170861145c565b500290565b600082198211156117205761172061145c565b500190565b6000816117345761173461145c565b507fffffffffffffffffffffffffffffffffffffffffffffffffffffffffffffffff019056fea264697066735822122050672598f949be5d0beef67b7a91bddc8923a628822729c0c580195c86d8d7c164736f6c63430008090033",
  "devdoc": {
    "kind": "dev",
    "methods": {
      "getRoleAdmin(bytes32)": {
        "details": "Returns the admin role that controls `role`. See {grantRole} and {revokeRole}. To change a role's admin, use {_setRoleAdmin}."
      },
      "grantRole(bytes32,address)": {
        "details": "Grants `role` to `account`. If `account` had not been already granted `role`, emits a {RoleGranted} event. Requirements: - the caller must have ``role``'s admin role. May emit a {RoleGranted} event."
      },
      "hasRole(bytes32,address)": {
        "details": "Returns `true` if `account` has been granted `role`."
      },
      "renounceRole(bytes32,address)": {
        "details": "Revokes `role` from the calling account. Roles are often managed via {grantRole} and {revokeRole}: this function's purpose is to provide a mechanism for accounts to lose their privileges if they are compromised (such as when a trusted device is misplaced). If the calling account had been revoked `role`, emits a {RoleRevoked} event. Requirements: - the caller must be `account`. May emit a {RoleRevoked} event."
      },
      "revokeRole(bytes32,address)": {
        "details": "Revokes `role` from `account`. If `account` had been granted `role`, emits a {RoleRevoked} event. Requirements: - the caller must have ``role``'s admin role. May emit a {RoleRevoked} event."
      },
      "supportsInterface(bytes4)": {
        "details": "See {IERC165-supportsInterface}."
      }
    },
    "version": 1
  },
  "userdoc": {
    "kind": "user",
    "methods": {},
    "version": 1
  },
  "storageLayout": {
    "storage": [
      {
        "astId": 3032,
        "contract": "contracts/TNGBLPriceOracle.sol:TNGBLPriceOracle",
        "label": "_roles",
        "offset": 0,
        "slot": "0",
        "type": "t_mapping(t_bytes32,t_struct(RoleData)3027_storage)"
      },
      {
        "astId": 7897,
        "contract": "contracts/TNGBLPriceOracle.sol:TNGBLPriceOracle",
        "label": "addressProvider",
        "offset": 0,
        "slot": "1",
        "type": "t_contract(AddressProvider)8033"
      },
      {
        "astId": 10366,
        "contract": "contracts/TNGBLPriceOracle.sol:TNGBLPriceOracle",
        "label": "oracleLookBackPeriod",
        "offset": 20,
        "slot": "1",
        "type": "t_uint24"
      },
      {
        "astId": 10368,
        "contract": "contracts/TNGBLPriceOracle.sol:TNGBLPriceOracle",
        "label": "_router",
        "offset": 0,
        "slot": "2",
        "type": "t_address"
      },
      {
        "astId": 10370,
        "contract": "contracts/TNGBLPriceOracle.sol:TNGBLPriceOracle",
        "label": "_output",
        "offset": 0,
        "slot": "3",
        "type": "t_address"
      },
      {
        "astId": 10373,
        "contract": "contracts/TNGBLPriceOracle.sol:TNGBLPriceOracle",
        "label": "_path",
        "offset": 0,
        "slot": "4",
        "type": "t_array(t_address)dyn_storage"
      }
    ],
    "types": {
      "t_address": {
        "encoding": "inplace",
        "label": "address",
        "numberOfBytes": "20"
      },
      "t_array(t_address)dyn_storage": {
        "base": "t_address",
        "encoding": "dynamic_array",
        "label": "address[]",
        "numberOfBytes": "32"
      },
      "t_bool": {
        "encoding": "inplace",
        "label": "bool",
        "numberOfBytes": "1"
      },
      "t_bytes32": {
        "encoding": "inplace",
        "label": "bytes32",
        "numberOfBytes": "32"
      },
      "t_contract(AddressProvider)8033": {
        "encoding": "inplace",
        "label": "contract AddressProvider",
        "numberOfBytes": "20"
      },
      "t_mapping(t_address,t_bool)": {
        "encoding": "mapping",
        "key": "t_address",
        "label": "mapping(address => bool)",
        "numberOfBytes": "32",
        "value": "t_bool"
      },
      "t_mapping(t_bytes32,t_struct(RoleData)3027_storage)": {
        "encoding": "mapping",
        "key": "t_bytes32",
        "label": "mapping(bytes32 => struct AccessControl.RoleData)",
        "numberOfBytes": "32",
        "value": "t_struct(RoleData)3027_storage"
      },
      "t_struct(RoleData)3027_storage": {
        "encoding": "inplace",
        "label": "struct AccessControl.RoleData",
        "members": [
          {
            "astId": 3024,
            "contract": "contracts/TNGBLPriceOracle.sol:TNGBLPriceOracle",
            "label": "members",
            "offset": 0,
            "slot": "0",
            "type": "t_mapping(t_address,t_bool)"
          },
          {
            "astId": 3026,
            "contract": "contracts/TNGBLPriceOracle.sol:TNGBLPriceOracle",
            "label": "adminRole",
            "offset": 0,
            "slot": "1",
            "type": "t_bytes32"
          }
        ],
        "numberOfBytes": "64"
      },
      "t_uint24": {
        "encoding": "inplace",
        "label": "uint24",
        "numberOfBytes": "3"
      }
    }
  }
}