{
  "address": "0xb5DFABd7fF7F83BAB83995E72A52B97ABb7bcf63",
  "abi": [
    {
      "anonymous": false,
      "inputs": [
        {
          "indexed": true,
          "internalType": "address",
          "name": "owner",
          "type": "address"
        },
        {
          "indexed": true,
          "internalType": "address",
          "name": "spender",
          "type": "address"
        },
        {
          "indexed": false,
          "internalType": "uint256",
          "name": "value",
          "type": "uint256"
        }
      ],
      "name": "Approval",
      "type": "event"
    },
    {
      "anonymous": false,
      "inputs": [
        {
          "indexed": false,
          "internalType": "uint8",
          "name": "version",
          "type": "uint8"
        }
      ],
      "name": "Initialized",
      "type": "event"
    },
    {
      "anonymous": false,
      "inputs": [
        {
          "indexed": false,
          "internalType": "address",
          "name": "account",
          "type": "address"
        }
      ],
      "name": "Paused",
      "type": "event"
    },
    {
      "anonymous": false,
      "inputs": [
        {
          "indexed": true,
          "internalType": "uint256",
          "name": "blockNumber",
          "type": "uint256"
        },
        {
          "indexed": true,
          "internalType": "uint256",
          "name": "day",
          "type": "uint256"
        },
        {
          "indexed": false,
          "internalType": "uint256",
          "name": "supply",
          "type": "uint256"
        },
        {
          "indexed": false,
          "internalType": "uint256",
          "name": "supplyDelta",
          "type": "uint256"
        },
        {
          "indexed": false,
          "internalType": "uint256",
          "name": "index",
          "type": "uint256"
        }
      ],
      "name": "Rebase",
      "type": "event"
    },
    {
      "anonymous": false,
      "inputs": [
        {
          "indexed": true,
          "internalType": "bytes32",
          "name": "role",
          "type": "bytes32"
        },
        {
          "indexed": true,
          "internalType": "bytes32",
          "name": "previousAdminRole",
          "type": "bytes32"
        },
        {
          "indexed": true,
          "internalType": "bytes32",
          "name": "newAdminRole",
          "type": "bytes32"
        }
      ],
      "name": "RoleAdminChanged",
      "type": "event"
    },
    {
      "anonymous": false,
      "inputs": [
        {
          "indexed": true,
          "internalType": "bytes32",
          "name": "role",
          "type": "bytes32"
        },
        {
          "indexed": true,
          "internalType": "address",
          "name": "account",
          "type": "address"
        },
        {
          "indexed": true,
          "internalType": "address",
          "name": "sender",
          "type": "address"
        }
      ],
      "name": "RoleGranted",
      "type": "event"
    },
    {
      "anonymous": false,
      "inputs": [
        {
          "indexed": true,
          "internalType": "bytes32",
          "name": "role",
          "type": "bytes32"
        },
        {
          "indexed": true,
          "internalType": "address",
          "name": "account",
          "type": "address"
        },
        {
          "indexed": true,
          "internalType": "address",
          "name": "sender",
          "type": "address"
        }
      ],
      "name": "RoleRevoked",
      "type": "event"
    },
    {
      "anonymous": false,
      "inputs": [
        {
          "indexed": true,
          "internalType": "address",
          "name": "from",
          "type": "address"
        },
        {
          "indexed": true,
          "internalType": "address",
          "name": "to",
          "type": "address"
        },
        {
          "indexed": false,
          "internalType": "uint256",
          "name": "value",
          "type": "uint256"
        }
      ],
      "name": "Transfer",
      "type": "event"
    },
    {
      "anonymous": false,
      "inputs": [
        {
          "indexed": false,
          "internalType": "address",
          "name": "account",
          "type": "address"
        }
      ],
      "name": "Unpaused",
      "type": "event"
    },
    {
      "inputs": [],
      "name": "DEFAULT_ADMIN_ROLE",
      "outputs": [
        {
          "internalType": "bytes32",
          "name": "",
          "type": "bytes32"
        }
      ],
      "stateMutability": "view",
      "type": "function"
    },
    {
      "inputs": [],
      "name": "DOMAIN_SEPARATOR",
      "outputs": [
        {
          "internalType": "bytes32",
          "name": "",
          "type": "bytes32"
        }
      ],
      "stateMutability": "view",
      "type": "function"
    },
    {
      "inputs": [],
      "name": "addressProvider",
      "outputs": [
        {
          "internalType": "contract AddressProvider",
          "name": "",
          "type": "address"
        }
      ],
      "stateMutability": "view",
      "type": "function"
    },
    {
      "inputs": [
        {
          "internalType": "address",
          "name": "owner_",
          "type": "address"
        },
        {
          "internalType": "address",
          "name": "spender",
          "type": "address"
        }
      ],
      "name": "allowance",
      "outputs": [
        {
          "internalType": "uint256",
          "name": "",
          "type": "uint256"
        }
      ],
      "stateMutability": "view",
      "type": "function"
    },
    {
      "inputs": [
        {
          "internalType": "address",
          "name": "spender",
          "type": "address"
        },
        {
          "internalType": "uint256",
          "name": "value",
          "type": "uint256"
        }
      ],
      "name": "approve",
      "outputs": [
        {
          "internalType": "bool",
          "name": "",
          "type": "bool"
        }
      ],
      "stateMutability": "nonpayable",
      "type": "function"
    },
    {
      "inputs": [
        {
          "internalType": "address",
          "name": "account",
          "type": "address"
        }
      ],
      "name": "balanceOf",
      "outputs": [
        {
          "internalType": "uint256",
          "name": "",
          "type": "uint256"
        }
      ],
      "stateMutability": "view",
      "type": "function"
    },
    {
      "inputs": [
        {
          "internalType": "address",
          "name": "account",
          "type": "address"
        },
        {
          "internalType": "uint256",
          "name": "amount",
          "type": "uint256"
        }
      ],
      "name": "burn",
      "outputs": [],
      "stateMutability": "nonpayable",
      "type": "function"
    },
    {
      "inputs": [],
      "name": "decimals",
      "outputs": [
        {
          "internalType": "uint8",
          "name": "",
          "type": "uint8"
        }
      ],
      "stateMutability": "pure",
      "type": "function"
    },
    {
      "inputs": [
        {
          "internalType": "address",
          "name": "spender",
          "type": "address"
        },
        {
          "internalType": "uint256",
          "name": "subtractedValue",
          "type": "uint256"
        }
      ],
      "name": "decreaseAllowance",
      "outputs": [
        {
          "internalType": "bool",
          "name": "",
          "type": "bool"
        }
      ],
      "stateMutability": "nonpayable",
      "type": "function"
    },
    {
      "inputs": [
        {
          "internalType": "bytes32",
          "name": "role",
          "type": "bytes32"
        }
      ],
      "name": "getRoleAdmin",
      "outputs": [
        {
          "internalType": "bytes32",
          "name": "",
          "type": "bytes32"
        }
      ],
      "stateMutability": "view",
      "type": "function"
    },
    {
      "inputs": [
        {
          "internalType": "bytes32",
          "name": "role",
          "type": "bytes32"
        },
        {
          "internalType": "address",
          "name": "account",
          "type": "address"
        }
      ],
      "name": "grantRole",
      "outputs": [],
      "stateMutability": "nonpayable",
      "type": "function"
    },
    {
      "inputs": [
        {
          "internalType": "bytes32",
          "name": "role",
          "type": "bytes32"
        },
        {
          "internalType": "address",
          "name": "account",
          "type": "address"
        }
      ],
      "name": "hasRole",
      "outputs": [
        {
          "internalType": "bool",
          "name": "",
          "type": "bool"
        }
      ],
      "stateMutability": "view",
      "type": "function"
    },
    {
      "inputs": [
        {
          "internalType": "address",
          "name": "spender",
          "type": "address"
        },
        {
          "internalType": "uint256",
          "name": "addedValue",
          "type": "uint256"
        }
      ],
      "name": "increaseAllowance",
      "outputs": [
        {
          "internalType": "bool",
          "name": "",
          "type": "bool"
        }
      ],
      "stateMutability": "nonpayable",
      "type": "function"
    },
    {
      "inputs": [],
      "name": "initialize",
      "outputs": [],
      "stateMutability": "nonpayable",
      "type": "function"
    },
    {
      "inputs": [],
      "name": "liquidityIndex",
      "outputs": [
        {
          "internalType": "uint256",
          "name": "",
          "type": "uint256"
        }
      ],
      "stateMutability": "view",
      "type": "function"
    },
    {
      "inputs": [
        {
          "internalType": "address",
          "name": "account",
          "type": "address"
        },
        {
          "internalType": "uint256",
          "name": "amount",
          "type": "uint256"
        }
      ],
      "name": "mint",
      "outputs": [],
      "stateMutability": "nonpayable",
      "type": "function"
    },
    {
      "inputs": [],
      "name": "name",
      "outputs": [
        {
          "internalType": "string",
          "name": "",
          "type": "string"
        }
      ],
      "stateMutability": "view",
      "type": "function"
    },
    {
      "inputs": [
        {
          "internalType": "address",
          "name": "owner",
          "type": "address"
        }
      ],
      "name": "nonces",
      "outputs": [
        {
          "internalType": "uint256",
          "name": "",
          "type": "uint256"
        }
      ],
      "stateMutability": "view",
      "type": "function"
    },
    {
      "inputs": [],
      "name": "pause",
      "outputs": [],
      "stateMutability": "nonpayable",
      "type": "function"
    },
    {
      "inputs": [],
      "name": "paused",
      "outputs": [
        {
          "internalType": "bool",
          "name": "",
          "type": "bool"
        }
      ],
      "stateMutability": "view",
      "type": "function"
    },
    {
      "inputs": [
        {
          "internalType": "address",
          "name": "owner",
          "type": "address"
        },
        {
          "internalType": "address",
          "name": "spender",
          "type": "address"
        },
        {
          "internalType": "uint256",
          "name": "value",
          "type": "uint256"
        },
        {
          "internalType": "uint256",
          "name": "deadline",
          "type": "uint256"
        },
        {
          "internalType": "uint8",
          "name": "v",
          "type": "uint8"
        },
        {
          "internalType": "bytes32",
          "name": "r",
          "type": "bytes32"
        },
        {
          "internalType": "bytes32",
          "name": "s",
          "type": "bytes32"
        }
      ],
      "name": "permit",
      "outputs": [],
      "stateMutability": "nonpayable",
      "type": "function"
    },
    {
      "inputs": [
        {
          "internalType": "uint256",
          "name": "supplyDelta",
          "type": "uint256"
        }
      ],
      "name": "rebase",
      "outputs": [],
      "stateMutability": "nonpayable",
      "type": "function"
    },
    {
      "inputs": [
        {
          "internalType": "bytes32",
          "name": "role",
          "type": "bytes32"
        },
        {
          "internalType": "address",
          "name": "account",
          "type": "address"
        }
      ],
      "name": "renounceRole",
      "outputs": [],
      "stateMutability": "nonpayable",
      "type": "function"
    },
    {
      "inputs": [
        {
          "internalType": "bytes32",
          "name": "role",
          "type": "bytes32"
        },
        {
          "internalType": "address",
          "name": "account",
          "type": "address"
        }
      ],
      "name": "revokeRole",
      "outputs": [],
      "stateMutability": "nonpayable",
      "type": "function"
    },
    {
      "inputs": [
        {
          "internalType": "contract AddressProvider",
          "name": "_addressProvider",
          "type": "address"
        }
      ],
      "name": "setAddressProvider",
      "outputs": [],
      "stateMutability": "nonpayable",
      "type": "function"
    },
    {
      "inputs": [
        {
          "internalType": "bytes4",
          "name": "interfaceId",
          "type": "bytes4"
        }
      ],
      "name": "supportsInterface",
      "outputs": [
        {
          "internalType": "bool",
          "name": "",
          "type": "bool"
        }
      ],
      "stateMutability": "view",
      "type": "function"
    },
    {
      "inputs": [],
      "name": "symbol",
      "outputs": [
        {
          "internalType": "string",
          "name": "",
          "type": "string"
        }
      ],
      "stateMutability": "view",
      "type": "function"
    },
    {
      "inputs": [],
      "name": "totalSupply",
      "outputs": [
        {
          "internalType": "uint256",
          "name": "",
          "type": "uint256"
        }
      ],
      "stateMutability": "view",
      "type": "function"
    },
    {
      "inputs": [
        {
          "internalType": "address",
          "name": "to",
          "type": "address"
        },
        {
          "internalType": "uint256",
          "name": "amount",
          "type": "uint256"
        }
      ],
      "name": "transfer",
      "outputs": [
        {
          "internalType": "bool",
          "name": "",
          "type": "bool"
        }
      ],
      "stateMutability": "nonpayable",
      "type": "function"
    },
    {
      "inputs": [
        {
          "internalType": "address",
          "name": "to",
          "type": "address"
        }
      ],
      "name": "transferAll",
      "outputs": [
        {
          "internalType": "bool",
          "name": "",
          "type": "bool"
        }
      ],
      "stateMutability": "nonpayable",
      "type": "function"
    },
    {
      "inputs": [
        {
          "internalType": "address",
          "name": "from",
          "type": "address"
        },
        {
          "internalType": "address",
          "name": "to",
          "type": "address"
        }
      ],
      "name": "transferAllFrom",
      "outputs": [
        {
          "internalType": "bool",
          "name": "",
          "type": "bool"
        }
      ],
      "stateMutability": "nonpayable",
      "type": "function"
    },
    {
      "inputs": [
        {
          "internalType": "address",
          "name": "from",
          "type": "address"
        },
        {
          "internalType": "address",
          "name": "to",
          "type": "address"
        },
        {
          "internalType": "uint256",
          "name": "amount",
          "type": "uint256"
        }
      ],
      "name": "transferFrom",
      "outputs": [
        {
          "internalType": "bool",
          "name": "",
          "type": "bool"
        }
      ],
      "stateMutability": "nonpayable",
      "type": "function"
    },
    {
      "inputs": [],
      "name": "unpause",
      "outputs": [],
      "stateMutability": "nonpayable",
      "type": "function"
    }
  ],
  "transactionHash": "0x7a57c0c8d360cd65f20ec2592fb4980de1666bb7c3575dcd8ed796d0a6bc1698",
  "args": [],
  "numDeployments": 2,
  "solcInputHash": "4fd1954b2d41ed9c543336ea22ffca37",
  "bytecode": "0x608060405234801561001057600080fd5b50612e08806100206000396000f3fe608060405234801561001057600080fd5b506004361061020b5760003560e01c806370a082311161012a578063a217fddf116100bd578063bbf44f331161008c578063d505accf11610071578063d505accf1461045e578063d547741f14610471578063dd62ed3e1461048457600080fd5b8063bbf44f3314610441578063bc4f2d6d1461044b57600080fd5b8063a217fddf14610400578063a3a7e7f314610408578063a457c2d71461041b578063a9059cbb1461042e57600080fd5b806384d4b410116100f957806384d4b4101461039957806391d14854146103ac57806395d89b41146103e55780639dc29fac146103ed57600080fd5b806370a08231146103635780637ecebe00146103765780638129fc1c146103895780638456cb591461039157600080fd5b80632f2ff15d116101a2578063395093511161017157806339509351146103295780633f4ba83a1461033c57806340c10f19146103445780635c975abb1461035757600080fd5b80632f2ff15d146102ec578063313ce567146102ff5780633644e5151461030e57806336568abe1461031657600080fd5b80631a5fa2e3116101de5780631a5fa2e31461027657806323b872dd1461028b578063248a9ca31461029e5780632954018c146102c157600080fd5b806301ffc9a71461021057806306fdde0314610238578063095ea7b31461024d57806318160ddd14610260575b600080fd5b61022361021e3660046127cc565b6104be565b60405190151581526020015b60405180910390f35b610240610557565b60405161022f9190612884565b61022361025b3660046128ac565b6105e9565b610268610656565b60405190815260200161022f565b6102896102843660046128d8565b61067e565b005b6102236102993660046128f5565b6106c4565b6102686102ac366004612936565b60009081526065602052604090206001015490565b6097546102d4906001600160a01b031681565b6040516001600160a01b03909116815260200161022f565b6102896102fa36600461294f565b6107cf565b6040516009815260200161022f565b6102686107f9565b61028961032436600461294f565b610803565b6102236103373660046128ac565b610894565b610289610927565b6102896103523660046128ac565b610945565b6101315460ff16610223565b6102686103713660046128d8565b610adf565b6102686103843660046128d8565b610b0c565b610289610b2a565b610289610d5c565b6102236103a736600461297f565b610d77565b6102236103ba36600461294f565b60009182526065602090815260408084206001600160a01b0393909316845291905290205460ff1690565b610240610e49565b6102896103fb3660046128ac565b610e58565b610268600081565b6102236104163660046128d8565b611069565b6102236104293660046128ac565b611109565b61022361043c3660046128ac565b6111f4565b6102686101655481565b610289610459366004612936565b6112c5565b61028961046c3660046129ad565b611679565b61028961047f36600461294f565b6117dd565b61026861049236600461297f565b6001600160a01b0391821660009081526101676020908152604080832093909416825291909152205490565b60007fffffffff0000000000000000000000000000000000000000000000000000000082167f7965db0b00000000000000000000000000000000000000000000000000000000148061055157507f01ffc9a7000000000000000000000000000000000000000000000000000000007fffffffff000000000000000000000000000000000000000000000000000000008316145b92915050565b6060609b805461056690612a24565b80601f016020809104026020016040519081016040528092919081815260200182805461059290612a24565b80156105df5780601f106105b4576101008083540402835291602001916105df565b820191906000526020600020905b8154815290600101906020018083116105c257829003601f168201915b5050505050905090565b336000818152610167602090815260408083206001600160a01b038716808552925280832085905551919290917f8c5be1e5ebec7d5bd14f71427d1e84f3dd0314c0f7b2291e5b200ac8c7c3b925906106459086815260200190565b60405180910390a350600192915050565b6000610679610674610165546101635461180290919063ffffffff16565b61183b565b905090565b600061068981611862565b50609780547fffffffffffffffffffffffff0000000000000000000000000000000000000000166001600160a01b0392909216919091179055565b60006106ce61186c565b6106d784610adf565b8214156106ef576106e88484610d77565b90506107c8565b6106fa8433846118c2565b60006107126101655461070c85611973565b90611983565b6001600160a01b03861660009081526101666020526040812080549293508392909190610740908490612aa1565b90915550506001600160a01b038416600090815261016660205260408120805483929061076e908490612ab8565b92505081905550836001600160a01b0316856001600160a01b03167fddf252ad1be2c89b69c2b068fc378daa952ba7f163c4a11628f55a4df523b3ef856040516107ba91815260200190565b60405180910390a360019150505b9392505050565b6000828152606560205260409020600101546107ea81611862565b6107f483836119b1565b505050565b6000610679611a53565b6001600160a01b03811633146108865760405162461bcd60e51b815260206004820152602f60248201527f416363657373436f6e74726f6c3a2063616e206f6e6c792072656e6f756e636560448201527f20726f6c657320666f722073656c66000000000000000000000000000000000060648201526084015b60405180910390fd5b6108908282611ace565b5050565b336000908152610167602090815260408083206001600160a01b03861684529091528120805483919083906108ca908490612ab8565b9091555050336000818152610167602090815260408083206001600160a01b038816808552908352928190205490519081529192917f8c5be1e5ebec7d5bd14f71427d1e84f3dd0314c0f7b2291e5b200ac8c7c3b9259101610645565b600061093281611862565b61093a611b51565b610942611ba4565b50565b7ff0887ba65ee2024ea881d91b74c2450ef19e1557f03bed3ea9f16b037cbe2dc961096f81611862565b61097761186c565b6001600160a01b0383166109cd5760405162461bcd60e51b815260206004820152601460248201527f6d696e7420746f207a65726f2061646472657373000000000000000000000000604482015260640161087d565b60006109df6101655461070c85611973565b90506109e9610656565b610a03906fffffffffffffffffffffffffffffffff612aa1565b811115610a525760405162461bcd60e51b815260206004820152601360248201527f6d617820737570706c7920657863656564656400000000000000000000000000604482015260640161087d565b806101636000828254610a659190612ab8565b90915550506001600160a01b0384166000908152610166602052604081208054839290610a93908490612ab8565b90915550506040518381526001600160a01b038516906000907fddf252ad1be2c89b69c2b068fc378daa952ba7f163c4a11628f55a4df523b3ef9060200160405180910390a350505050565b610165546001600160a01b0382166000908152610166602052604081205490916105519161067491611802565b6001600160a01b038116600090815260fe6020526040812054610551565b600054610100900460ff1615808015610b4a5750600054600160ff909116105b80610b645750303b158015610b64575060005460ff166001145b610bd65760405162461bcd60e51b815260206004820152602e60248201527f496e697469616c697a61626c653a20636f6e747261637420697320616c72656160448201527f647920696e697469616c697a6564000000000000000000000000000000000000606482015260840161087d565b6000805460ff191660011790558015610c1657600080547fffffffffffffffffffffffffffffffffffffffffffffffffffffffffffff00ff166101001790555b6b033b2e3c9fd0803ce800000061016581905550610c9e6040518060400160405280600881526020017f5265616c205553440000000000000000000000000000000000000000000000008152506040518060400160405280600481526020017f5553445200000000000000000000000000000000000000000000000000000000815250611bf7565b610cdc6040518060400160405280600481526020017f5553445200000000000000000000000000000000000000000000000000000000815250611c7e565b610ce4611d3a565b610cec611db7565b610cf76000336119b1565b801561094257600080547fffffffffffffffffffffffffffffffffffffffffffffffffffffffffffff00ff169055604051600181527f7f26b83ff96e1f2b6a682f133852f6798a09c465da95921460cefb38474024989060200160405180910390a150565b6000610d6781611862565b610d6f61186c565b610942611e3c565b6000610d8161186c565b6000610d8c84610adf565b6001600160a01b03851660009081526101666020526040902054909150610db48533846118c2565b6001600160a01b038086166000908152610166602052604080822082905591861681529081208054839290610dea908490612ab8565b92505081905550836001600160a01b0316856001600160a01b03167fddf252ad1be2c89b69c2b068fc378daa952ba7f163c4a11628f55a4df523b3ef84604051610e3691815260200190565b60405180910390a3506001949350505050565b6060609c805461056690612a24565b610e6061186c565b6001600160a01b038216610eb65760405162461bcd60e51b815260206004820152601660248201527f6275726e2066726f6d207a65726f206164647265737300000000000000000000604482015260640161087d565b336001600160a01b03831614610ed157610ed18233836118c2565b6000610edc83610adf565b905081811015610f2e5760405162461bcd60e51b815260206004820152601b60248201527f6275726e20616d6f756e7420657863656564732062616c616e63650000000000604482015260640161087d565b81811415610f88576001600160a01b03831660009081526101666020526040812054610163805491929091610f64908490612aa1565b90915550506001600160a01b03831660009081526101666020526040812055611022565b6000610f9a6101655461070c85611973565b6001600160a01b03851660009081526101666020526040902054909150811115610fda57506001600160a01b038316600090815261016660205260409020545b806101636000828254610fed9190612aa1565b90915550506001600160a01b038416600090815261016660205260408120805483929061101b908490612aa1565b9091555050505b6040518281526000906001600160a01b038516907fddf252ad1be2c89b69c2b068fc378daa952ba7f163c4a11628f55a4df523b3ef906020015b60405180910390a3505050565b600061107361186c565b600061107e33610adf565b33600090815261016660205260408082208054908390556001600160a01b0387168352908220805493945090928392906110b9908490612ab8565b90915550506040518281526001600160a01b0385169033907fddf252ad1be2c89b69c2b068fc378daa952ba7f163c4a11628f55a4df523b3ef906020015b60405180910390a35060019392505050565b336000908152610167602090815260408083206001600160a01b038616845290915281205480831061115f57336000908152610167602090815260408083206001600160a01b038816845290915281205561118f565b6111698382612aa1565b336000908152610167602090815260408083206001600160a01b03891684529091529020555b336000818152610167602090815260408083206001600160a01b038916808552908352928190205490519081529192917f8c5be1e5ebec7d5bd14f71427d1e84f3dd0314c0f7b2291e5b200ac8c7c3b925910160405180910390a35060019392505050565b60006111fe61186c565b61120733610adf565b82141561121e5761121783611069565b9050610551565b60006112306101655461070c85611973565b3360009081526101666020526040812080549293508392909190611255908490612aa1565b90915550506001600160a01b0384166000908152610166602052604081208054839290611283908490612ab8565b90915550506040518381526001600160a01b0385169033907fddf252ad1be2c89b69c2b068fc378daa952ba7f163c4a11628f55a4df523b3ef906020016110f7565b7f70546d1c92f8c2132ae23a23f5177aa8526356051c7510df99f50e012d2215296112ef81611862565b6112f761186c565b609754604080517fc83e4fd410f80be983b083c99898391186b0893751a26a9a1e5fdcb9d412970160208201527fd7b5cea1258f7a2acae3ed88fa9155d7a4e8425cafbbe0267f7d8ac75968341a8183015281518082038301815260608201928390527f7b7dfa550000000000000000000000000000000000000000000000000000000090925260009283926001600160a01b0390911691637b7dfa55916113a191606401612884565b60006040518083038186803b1580156113b957600080fd5b505afa1580156113cd573d6000803e3d6000fd5b505050506040513d6000823e601f3d9081017fffffffffffffffffffffffffffffffffffffffffffffffffffffffffffffffe01682016040526114139190810190612aff565b8060200190518101906114269190612bca565b9092509050336001600160a01b038316146114835760405162461bcd60e51b815260206004820152601660248201527f63616c6c6572206973206e6f7420747265617375727900000000000000000000604482015260640161087d565b600061148d610656565b9050841561161d576040517fbc5a6343000000000000000000000000000000000000000000000000000000008152600481018690526001600160a01b0383169063bc5a63439060240160206040518083038186803b1580156114ee57600080fd5b505afa158015611502573d6000803e3d6000fd5b505050506040513d601f19601f820116820180604052508101906115269190612bf9565b94506000611544826fffffffffffffffffffffffffffffffff612aa1565b905080861115611552578095505b851561161b57816115638782612ab8565b610165546115719190612c12565b61157b9190612c4f565b61016555611587612715565b82611590610656565b61159a9190612aa1565b600f0b60c08201526040517f152c60610000000000000000000000000000000000000000000000000000000081526001600160a01b0385169063152c6061906115e7908490600401612cb9565b600060405180830381600087803b15801561160157600080fd5b505af1158015611615573d6000803e3d6000fd5b50505050505b505b61162a6201518042612c4f565b6101655460408051848152602081018990529081019190915243907fa904dcf42a3461c90173c0b966672b2cb4350e529ea12d44e562fcec438363249060600160405180910390a35050505050565b834211156116c95760405162461bcd60e51b815260206004820152601d60248201527f45524332305065726d69743a206578706972656420646561646c696e65000000604482015260640161087d565b60007f6e71edae12b1b97f4d1f60370fef10105fa2faae0126114a169c64845d6126c98888886116f88c611e7a565b6040805160208101969096526001600160a01b0394851690860152929091166060840152608083015260a082015260c0810186905260e001604051602081830303815290604052805190602001209050600061175382611ea2565b9050600061176382878787611f0b565b9050896001600160a01b0316816001600160a01b0316146117c65760405162461bcd60e51b815260206004820152601e60248201527f45524332305065726d69743a20696e76616c6964207369676e61747572650000604482015260640161087d565b6117d18a8a8a611f33565b50505050505050505050565b6000828152606560205260409020600101546117f881611862565b6107f48383611ace565b60006b033b2e3c9fd0803ce800000061181b8385612c12565b611831906b019d971e4fe8401e74000000612ab8565b6107c89190612c4f565b6000633b9aca008261184e600283612c4f565b6118589190612ab8565b6105519190612c4f565b6109428133611f8d565b6101315460ff16156118c05760405162461bcd60e51b815260206004820152601060248201527f5061757361626c653a2070617573656400000000000000000000000000000000604482015260640161087d565b565b6001600160a01b03838116600090815261016760209081526040808320938616835292905220547fffffffffffffffffffffffffffffffffffffffffffffffffffffffffffffffff811461196d57818110156119605760405162461bcd60e51b815260206004820152601d60248201527f45524332303a20696e73756666696369656e7420616c6c6f77616e6365000000604482015260640161087d565b61196d8484848403611f33565b50505050565b6000610551633b9aca0083612c12565b60008161199c6b033b2e3c9fd0803ce800000085612c12565b6119a7600285612c4f565b6118319190612ab8565b60008281526065602090815260408083206001600160a01b038516845290915290205460ff166108905760008281526065602090815260408083206001600160a01b03851684529091529020805460ff19166001179055611a0f3390565b6001600160a01b0316816001600160a01b0316837f2f8788117e7eff1d82e926ec794901d17c78024a50270940304540a733656f0d60405160405180910390a45050565b60006106797f8b73c3c69bb8fe3d512ecc4cf759cc79239f7b179b0ffacaa9a75d522b39400f611a8260ca5490565b60cb546040805160208101859052908101839052606081018290524660808201523060a082015260009060c0016040516020818303038152906040528051906020012090509392505050565b60008281526065602090815260408083206001600160a01b038516845290915290205460ff16156108905760008281526065602090815260408083206001600160a01b0385168085529252808320805460ff1916905551339285917ff6391f5c32d9c69d2a47ea670b442974b53935d1edc7fd64eb21e047a839171b9190a45050565b6101315460ff166118c05760405162461bcd60e51b815260206004820152601460248201527f5061757361626c653a206e6f7420706175736564000000000000000000000000604482015260640161087d565b611bac611b51565b610131805460ff191690557f5db9ee0a495bf2e6ff9c91a7834c1ba4fdd244a5e8aa4e537bd38aeae4b073aa335b6040516001600160a01b03909116815260200160405180910390a1565b600054610100900460ff16611c745760405162461bcd60e51b815260206004820152602b60248201527f496e697469616c697a61626c653a20636f6e7472616374206973206e6f74206960448201527f6e697469616c697a696e67000000000000000000000000000000000000000000606482015260840161087d565b610890828261202b565b600054610100900460ff16611cfb5760405162461bcd60e51b815260206004820152602b60248201527f496e697469616c697a61626c653a20636f6e7472616374206973206e6f74206960448201527f6e697469616c697a696e67000000000000000000000000000000000000000000606482015260840161087d565b610942816040518060400160405280600181526020017f31000000000000000000000000000000000000000000000000000000000000008152506120cf565b600054610100900460ff166118c05760405162461bcd60e51b815260206004820152602b60248201527f496e697469616c697a61626c653a20636f6e7472616374206973206e6f74206960448201527f6e697469616c697a696e67000000000000000000000000000000000000000000606482015260840161087d565b600054610100900460ff16611e345760405162461bcd60e51b815260206004820152602b60248201527f496e697469616c697a61626c653a20636f6e7472616374206973206e6f74206960448201527f6e697469616c697a696e67000000000000000000000000000000000000000000606482015260840161087d565b6118c0612166565b611e4461186c565b610131805460ff191660011790557f62e78cea01bee320cd4e420270b5ea74000d11b0c9f74754ebdbfc544b05a258611bda3390565b6001600160a01b038116600090815260fe602052604090208054600181018255905b50919050565b6000610551611eaf611a53565b836040517f19010000000000000000000000000000000000000000000000000000000000006020820152602281018390526042810182905260009060620160405160208183030381529060405280519060200120905092915050565b6000806000611f1c878787876121f0565b91509150611f29816122fb565b5095945050505050565b6001600160a01b038381166000818152610167602090815260408083209487168084529482529182902085905590518481527f8c5be1e5ebec7d5bd14f71427d1e84f3dd0314c0f7b2291e5b200ac8c7c3b925910161105c565b60008281526065602090815260408083206001600160a01b038516845290915290205460ff1661089057611fcb816001600160a01b031660146124ec565b611fd68360206124ec565b604051602001611fe7929190612ced565b604080517fffffffffffffffffffffffffffffffffffffffffffffffffffffffffffffffe08184030181529082905262461bcd60e51b825261087d91600401612884565b600054610100900460ff166120a85760405162461bcd60e51b815260206004820152602b60248201527f496e697469616c697a61626c653a20636f6e7472616374206973206e6f74206960448201527f6e697469616c697a696e67000000000000000000000000000000000000000000606482015260840161087d565b81516120bb90609b906020850190612733565b5080516107f490609c906020840190612733565b600054610100900460ff1661214c5760405162461bcd60e51b815260206004820152602b60248201527f496e697469616c697a61626c653a20636f6e7472616374206973206e6f74206960448201527f6e697469616c697a696e67000000000000000000000000000000000000000000606482015260840161087d565b81516020928301208151919092012060ca9190915560cb55565b600054610100900460ff166121e35760405162461bcd60e51b815260206004820152602b60248201527f496e697469616c697a61626c653a20636f6e7472616374206973206e6f74206960448201527f6e697469616c697a696e67000000000000000000000000000000000000000000606482015260840161087d565b610131805460ff19169055565b6000807f7fffffffffffffffffffffffffffffff5d576e7357a4501ddfe92f46681b20a083111561222757506000905060036122f2565b8460ff16601b1415801561223f57508460ff16601c14155b1561225057506000905060046122f2565b6040805160008082526020820180845289905260ff881692820192909252606081018690526080810185905260019060a0016020604051602081039080840390855afa1580156122a4573d6000803e3d6000fd5b50506040517fffffffffffffffffffffffffffffffffffffffffffffffffffffffffffffffe001519150506001600160a01b0381166122eb576000600192509250506122f2565b9150600090505b94509492505050565b600081600481111561230f5761230f612d6e565b14156123185750565b600181600481111561232c5761232c612d6e565b141561237a5760405162461bcd60e51b815260206004820152601860248201527f45434453413a20696e76616c6964207369676e61747572650000000000000000604482015260640161087d565b600281600481111561238e5761238e612d6e565b14156123dc5760405162461bcd60e51b815260206004820152601f60248201527f45434453413a20696e76616c6964207369676e6174757265206c656e67746800604482015260640161087d565b60038160048111156123f0576123f0612d6e565b14156124645760405162461bcd60e51b815260206004820152602260248201527f45434453413a20696e76616c6964207369676e6174757265202773272076616c60448201527f7565000000000000000000000000000000000000000000000000000000000000606482015260840161087d565b600481600481111561247857612478612d6e565b14156109425760405162461bcd60e51b815260206004820152602260248201527f45434453413a20696e76616c6964207369676e6174757265202776272076616c60448201527f7565000000000000000000000000000000000000000000000000000000000000606482015260840161087d565b606060006124fb836002612c12565b612506906002612ab8565b67ffffffffffffffff81111561251e5761251e612ad0565b6040519080825280601f01601f191660200182016040528015612548576020820181803683370190505b5090507f30000000000000000000000000000000000000000000000000000000000000008160008151811061257f5761257f612c8a565b60200101907effffffffffffffffffffffffffffffffffffffffffffffffffffffffffffff1916908160001a9053507f7800000000000000000000000000000000000000000000000000000000000000816001815181106125e2576125e2612c8a565b60200101907effffffffffffffffffffffffffffffffffffffffffffffffffffffffffffff1916908160001a905350600061261e846002612c12565b612629906001612ab8565b90505b60018111156126c6577f303132333435363738396162636465660000000000000000000000000000000085600f166010811061266a5761266a612c8a565b1a60f81b82828151811061268057612680612c8a565b60200101907effffffffffffffffffffffffffffffffffffffffffffffffffffffffffffff1916908160001a90535060049490941c936126bf81612d9d565b905061262c565b5083156107c85760405162461bcd60e51b815260206004820181905260248201527f537472696e67733a20686578206c656e67746820696e73756666696369656e74604482015260640161087d565b6040518060e001604052806007906020820280368337509192915050565b82805461273f90612a24565b90600052602060002090601f01602090048101928261276157600085556127a7565b82601f1061277a57805160ff19168380011785556127a7565b828001600101855582156127a7579182015b828111156127a757825182559160200191906001019061278c565b506127b39291506127b7565b5090565b5b808211156127b357600081556001016127b8565b6000602082840312156127de57600080fd5b81357fffffffff00000000000000000000000000000000000000000000000000000000811681146107c857600080fd5b60005b83811015612829578181015183820152602001612811565b8381111561196d5750506000910152565b6000815180845261285281602086016020860161280e565b601f017fffffffffffffffffffffffffffffffffffffffffffffffffffffffffffffffe0169290920160200192915050565b6020815260006107c8602083018461283a565b6001600160a01b038116811461094257600080fd5b600080604083850312156128bf57600080fd5b82356128ca81612897565b946020939093013593505050565b6000602082840312156128ea57600080fd5b81356107c881612897565b60008060006060848603121561290a57600080fd5b833561291581612897565b9250602084013561292581612897565b929592945050506040919091013590565b60006020828403121561294857600080fd5b5035919050565b6000806040838503121561296257600080fd5b82359150602083013561297481612897565b809150509250929050565b6000806040838503121561299257600080fd5b823561299d81612897565b9150602083013561297481612897565b600080600080600080600060e0888a0312156129c857600080fd5b87356129d381612897565b965060208801356129e381612897565b95506040880135945060608801359350608088013560ff81168114612a0757600080fd5b9699959850939692959460a0840135945060c09093013592915050565b600181811c90821680612a3857607f821691505b60208210811415611e9c577f4e487b7100000000000000000000000000000000000000000000000000000000600052602260045260246000fd5b7f4e487b7100000000000000000000000000000000000000000000000000000000600052601160045260246000fd5b600082821015612ab357612ab3612a72565b500390565b60008219821115612acb57612acb612a72565b500190565b7f4e487b7100000000000000000000000000000000000000000000000000000000600052604160045260246000fd5b600060208284031215612b1157600080fd5b815167ffffffffffffffff80821115612b2957600080fd5b818401915084601f830112612b3d57600080fd5b815181811115612b4f57612b4f612ad0565b604051601f82017fffffffffffffffffffffffffffffffffffffffffffffffffffffffffffffffe0908116603f01168101908382118183101715612b9557612b95612ad0565b81604052828152876020848701011115612bae57600080fd5b612bbf83602083016020880161280e565b979650505050505050565b60008060408385031215612bdd57600080fd5b8251612be881612897565b602084015190925061297481612897565b600060208284031215612c0b57600080fd5b5051919050565b6000817fffffffffffffffffffffffffffffffffffffffffffffffffffffffffffffffff0483118215151615612c4a57612c4a612a72565b500290565b600082612c85577f4e487b7100000000000000000000000000000000000000000000000000000000600052601260045260246000fd5b500490565b7f4e487b7100000000000000000000000000000000000000000000000000000000600052603260045260246000fd5b60e08101818360005b6007811015612ce4578151600f0b835260209283019290910190600101612cc2565b50505092915050565b7f416363657373436f6e74726f6c3a206163636f756e7420000000000000000000815260008351612d2581601785016020880161280e565b7f206973206d697373696e6720726f6c65200000000000000000000000000000006017918401918201528351612d6281602884016020880161280e565b01602801949350505050565b7f4e487b7100000000000000000000000000000000000000000000000000000000600052602160045260246000fd5b600081612dac57612dac612a72565b507fffffffffffffffffffffffffffffffffffffffffffffffffffffffffffffffff019056fea2646970667358221220a4ca1888d30400244287174eb1c9b1d3c84e89f9174ac272db66dec0310ebd5664736f6c63430008090033",
  "libraries": {
    "WadRayMath": "0xe773044c8E3fFdbC510f0C84316727C93Dd0Be8D"
  },
  "devdoc": {
    "kind": "dev",
    "methods": {
      "DOMAIN_SEPARATOR()": {
        "details": "See {IERC20Permit-DOMAIN_SEPARATOR}."
      },
      "decimals()": {
        "details": "Returns the number of decimals used to get its user representation. For example, if `decimals` equals `2`, a balance of `505` tokens should be displayed to a user as `5.05` (`505 / 10 ** 2`). Tokens usually opt for a value of 18, imitating the relationship between Ether and Wei. This is the value {ERC20} uses, unless this function is overridden; NOTE: This information is only used for _display_ purposes: it in no way affects any of the arithmetic of the contract, including {IERC20-balanceOf} and {IERC20-transfer}."
      },
      "decreaseAllowance(address,uint256)": {
        "details": "Atomically decreases the allowance granted to `spender` by the caller. This is an alternative to {approve} that can be used as a mitigation for problems described in {IERC20-approve}. Emits an {Approval} event indicating the updated allowance. Requirements: - `spender` cannot be the zero address. - `spender` must have allowance for the caller of at least `subtractedValue`."
      },
      "getRoleAdmin(bytes32)": {
        "details": "Returns the admin role that controls `role`. See {grantRole} and {revokeRole}. To change a role's admin, use {_setRoleAdmin}."
      },
      "grantRole(bytes32,address)": {
        "details": "Grants `role` to `account`. If `account` had not been already granted `role`, emits a {RoleGranted} event. Requirements: - the caller must have ``role``'s admin role. May emit a {RoleGranted} event."
      },
      "hasRole(bytes32,address)": {
        "details": "Returns `true` if `account` has been granted `role`."
      },
      "increaseAllowance(address,uint256)": {
        "details": "Atomically increases the allowance granted to `spender` by the caller. This is an alternative to {approve} that can be used as a mitigation for problems described in {IERC20-approve}. Emits an {Approval} event indicating the updated allowance. Requirements: - `spender` cannot be the zero address."
      },
      "name()": {
        "details": "Returns the name of the token."
      },
      "nonces(address)": {
        "details": "See {IERC20Permit-nonces}."
      },
      "paused()": {
        "details": "Returns true if the contract is paused, and false otherwise."
      },
      "permit(address,address,uint256,uint256,uint8,bytes32,bytes32)": {
        "details": "See {IERC20Permit-permit}."
      },
      "renounceRole(bytes32,address)": {
        "details": "Revokes `role` from the calling account. Roles are often managed via {grantRole} and {revokeRole}: this function's purpose is to provide a mechanism for accounts to lose their privileges if they are compromised (such as when a trusted device is misplaced). If the calling account had been revoked `role`, emits a {RoleRevoked} event. Requirements: - the caller must be `account`. May emit a {RoleRevoked} event."
      },
      "revokeRole(bytes32,address)": {
        "details": "Revokes `role` from `account`. If `account` had been granted `role`, emits a {RoleRevoked} event. Requirements: - the caller must have ``role``'s admin role. May emit a {RoleRevoked} event."
      },
      "supportsInterface(bytes4)": {
        "details": "See {IERC165-supportsInterface}."
      },
      "symbol()": {
        "details": "Returns the symbol of the token, usually a shorter version of the name."
      }
    },
    "version": 1
  },
  "userdoc": {
    "kind": "user",
    "methods": {},
    "version": 1
  },
  "storageLayout": {
    "storage": [
      {
        "astId": 597,
        "contract": "contracts/tokens/USDR.sol:USDR",
        "label": "_initialized",
        "offset": 0,
        "slot": "0",
        "type": "t_uint8"
      },
      {
        "astId": 600,
        "contract": "contracts/tokens/USDR.sol:USDR",
        "label": "_initializing",
        "offset": 1,
        "slot": "0",
        "type": "t_bool"
      },
      {
        "astId": 2093,
        "contract": "contracts/tokens/USDR.sol:USDR",
        "label": "__gap",
        "offset": 0,
        "slot": "1",
        "type": "t_array(t_uint256)50_storage"
      },
      {
        "astId": 2994,
        "contract": "contracts/tokens/USDR.sol:USDR",
        "label": "__gap",
        "offset": 0,
        "slot": "51",
        "type": "t_array(t_uint256)50_storage"
      },
      {
        "astId": 85,
        "contract": "contracts/tokens/USDR.sol:USDR",
        "label": "_roles",
        "offset": 0,
        "slot": "101",
        "type": "t_mapping(t_bytes32,t_struct(RoleData)80_storage)"
      },
      {
        "astId": 384,
        "contract": "contracts/tokens/USDR.sol:USDR",
        "label": "__gap",
        "offset": 0,
        "slot": "102",
        "type": "t_array(t_uint256)49_storage"
      },
      {
        "astId": 7917,
        "contract": "contracts/tokens/USDR.sol:USDR",
        "label": "addressProvider",
        "offset": 0,
        "slot": "151",
        "type": "t_contract(AddressProvider)8033"
      },
      {
        "astId": 887,
        "contract": "contracts/tokens/USDR.sol:USDR",
        "label": "_balances",
        "offset": 0,
        "slot": "152",
        "type": "t_mapping(t_address,t_uint256)"
      },
      {
        "astId": 893,
        "contract": "contracts/tokens/USDR.sol:USDR",
        "label": "_allowances",
        "offset": 0,
        "slot": "153",
        "type": "t_mapping(t_address,t_mapping(t_address,t_uint256))"
      },
      {
        "astId": 895,
        "contract": "contracts/tokens/USDR.sol:USDR",
        "label": "_totalSupply",
        "offset": 0,
        "slot": "154",
        "type": "t_uint256"
      },
      {
        "astId": 897,
        "contract": "contracts/tokens/USDR.sol:USDR",
        "label": "_name",
        "offset": 0,
        "slot": "155",
        "type": "t_string_storage"
      },
      {
        "astId": 899,
        "contract": "contracts/tokens/USDR.sol:USDR",
        "label": "_symbol",
        "offset": 0,
        "slot": "156",
        "type": "t_string_storage"
      },
      {
        "astId": 1478,
        "contract": "contracts/tokens/USDR.sol:USDR",
        "label": "__gap",
        "offset": 0,
        "slot": "157",
        "type": "t_array(t_uint256)45_storage"
      },
      {
        "astId": 2810,
        "contract": "contracts/tokens/USDR.sol:USDR",
        "label": "_HASHED_NAME",
        "offset": 0,
        "slot": "202",
        "type": "t_bytes32"
      },
      {
        "astId": 2812,
        "contract": "contracts/tokens/USDR.sol:USDR",
        "label": "_HASHED_VERSION",
        "offset": 0,
        "slot": "203",
        "type": "t_bytes32"
      },
      {
        "astId": 2950,
        "contract": "contracts/tokens/USDR.sol:USDR",
        "label": "__gap",
        "offset": 0,
        "slot": "204",
        "type": "t_array(t_uint256)50_storage"
      },
      {
        "astId": 1608,
        "contract": "contracts/tokens/USDR.sol:USDR",
        "label": "_nonces",
        "offset": 0,
        "slot": "254",
        "type": "t_mapping(t_address,t_struct(Counter)2100_storage)"
      },
      {
        "astId": 1616,
        "contract": "contracts/tokens/USDR.sol:USDR",
        "label": "_PERMIT_TYPEHASH_DEPRECATED_SLOT",
        "offset": 0,
        "slot": "255",
        "type": "t_bytes32"
      },
      {
        "astId": 1772,
        "contract": "contracts/tokens/USDR.sol:USDR",
        "label": "__gap",
        "offset": 0,
        "slot": "256",
        "type": "t_array(t_uint256)49_storage"
      },
      {
        "astId": 762,
        "contract": "contracts/tokens/USDR.sol:USDR",
        "label": "_paused",
        "offset": 0,
        "slot": "305",
        "type": "t_bool"
      },
      {
        "astId": 867,
        "contract": "contracts/tokens/USDR.sol:USDR",
        "label": "__gap",
        "offset": 0,
        "slot": "306",
        "type": "t_array(t_uint256)49_storage"
      },
      {
        "astId": 27369,
        "contract": "contracts/tokens/USDR.sol:USDR",
        "label": "_totalSupply",
        "offset": 0,
        "slot": "355",
        "type": "t_uint256"
      },
      {
        "astId": 27371,
        "contract": "contracts/tokens/USDR.sol:USDR",
        "label": "_totalSupplyScale",
        "offset": 0,
        "slot": "356",
        "type": "t_uint256"
      },
      {
        "astId": 27373,
        "contract": "contracts/tokens/USDR.sol:USDR",
        "label": "liquidityIndex",
        "offset": 0,
        "slot": "357",
        "type": "t_uint256"
      },
      {
        "astId": 27377,
        "contract": "contracts/tokens/USDR.sol:USDR",
        "label": "_balances",
        "offset": 0,
        "slot": "358",
        "type": "t_mapping(t_address,t_uint256)"
      },
      {
        "astId": 27383,
        "contract": "contracts/tokens/USDR.sol:USDR",
        "label": "_allowedValue",
        "offset": 0,
        "slot": "359",
        "type": "t_mapping(t_address,t_mapping(t_address,t_uint256))"
      }
    ],
    "types": {
      "t_address": {
        "encoding": "inplace",
        "label": "address",
        "numberOfBytes": "20"
      },
      "t_array(t_uint256)45_storage": {
        "base": "t_uint256",
        "encoding": "inplace",
        "label": "uint256[45]",
        "numberOfBytes": "1440"
      },
      "t_array(t_uint256)49_storage": {
        "base": "t_uint256",
        "encoding": "inplace",
        "label": "uint256[49]",
        "numberOfBytes": "1568"
      },
      "t_array(t_uint256)50_storage": {
        "base": "t_uint256",
        "encoding": "inplace",
        "label": "uint256[50]",
        "numberOfBytes": "1600"
      },
      "t_bool": {
        "encoding": "inplace",
        "label": "bool",
        "numberOfBytes": "1"
      },
      "t_bytes32": {
        "encoding": "inplace",
        "label": "bytes32",
        "numberOfBytes": "32"
      },
      "t_contract(AddressProvider)8033": {
        "encoding": "inplace",
        "label": "contract AddressProvider",
        "numberOfBytes": "20"
      },
      "t_mapping(t_address,t_bool)": {
        "encoding": "mapping",
        "key": "t_address",
        "label": "mapping(address => bool)",
        "numberOfBytes": "32",
        "value": "t_bool"
      },
      "t_mapping(t_address,t_mapping(t_address,t_uint256))": {
        "encoding": "mapping",
        "key": "t_address",
        "label": "mapping(address => mapping(address => uint256))",
        "numberOfBytes": "32",
        "value": "t_mapping(t_address,t_uint256)"
      },
      "t_mapping(t_address,t_struct(Counter)2100_storage)": {
        "encoding": "mapping",
        "key": "t_address",
        "label": "mapping(address => struct CountersUpgradeable.Counter)",
        "numberOfBytes": "32",
        "value": "t_struct(Counter)2100_storage"
      },
      "t_mapping(t_address,t_uint256)": {
        "encoding": "mapping",
        "key": "t_address",
        "label": "mapping(address => uint256)",
        "numberOfBytes": "32",
        "value": "t_uint256"
      },
      "t_mapping(t_bytes32,t_struct(RoleData)80_storage)": {
        "encoding": "mapping",
        "key": "t_bytes32",
        "label": "mapping(bytes32 => struct AccessControlUpgradeable.RoleData)",
        "numberOfBytes": "32",
        "value": "t_struct(RoleData)80_storage"
      },
      "t_string_storage": {
        "encoding": "bytes",
        "label": "string",
        "numberOfBytes": "32"
      },
      "t_struct(Counter)2100_storage": {
        "encoding": "inplace",
        "label": "struct CountersUpgradeable.Counter",
        "members": [
          {
            "astId": 2099,
            "contract": "contracts/tokens/USDR.sol:USDR",
            "label": "_value",
            "offset": 0,
            "slot": "0",
            "type": "t_uint256"
          }
        ],
        "numberOfBytes": "32"
      },
      "t_struct(RoleData)80_storage": {
        "encoding": "inplace",
        "label": "struct AccessControlUpgradeable.RoleData",
        "members": [
          {
            "astId": 77,
            "contract": "contracts/tokens/USDR.sol:USDR",
            "label": "members",
            "offset": 0,
            "slot": "0",
            "type": "t_mapping(t_address,t_bool)"
          },
          {
            "astId": 79,
            "contract": "contracts/tokens/USDR.sol:USDR",
            "label": "adminRole",
            "offset": 0,
            "slot": "1",
            "type": "t_bytes32"
          }
        ],
        "numberOfBytes": "64"
      },
      "t_uint256": {
        "encoding": "inplace",
        "label": "uint256",
        "numberOfBytes": "32"
      },
      "t_uint8": {
        "encoding": "inplace",
        "label": "uint8",
        "numberOfBytes": "1"
      }
    }
  }
}